:100000000C9496000C94BE000C94BE000C94BE00A0
:100010000C94BE000C94BE000C94BE000C94BE0068
:100020000C94BE000C94BE000C946A040C94E8047A
:100030000C94BE000C94BE000C94BE000C94BE0048
:100040000C94BE000C94BE000C94BE000C94BE0038
:100050000C94BE000C94BE000C94BE000C942004C2
:100060000C94BE000C94BE000C94BE000C94BE0018
:100070000C94BE000C94BE000C94BE000C94BE0008
:100080000C94BE000C94BE000C94BE000C94BE00F8
:100090000C94BE000C94BE000C94BE000C94BE00E8
:1000A0000C94BE000C94BE000C94BE00080B000221
:1000B0000202000009040000010202000005240001
:1000C0001001052401010104240206052406000193
:1000D0000705810310004009040100020A00000026
:1000E00007050202400000070583024000000403E8
:1000F000090412010002EF02014041233780000190
:100100000102030141726475696E6F204C4C43001B
:1001100041726475696E6F204D6963726F000706E6
:1001200005040100080A0B0C0D091A0711241FBE53
:10013000CFEFDAE0DEBFCDBF11E0A0E0B1E0E0E25A
:10014000F2E102C005900D92A633B107D9F721E084
:10015000A6E3B1E001C01D92A63BB207E1F710E0B3
:10016000C6E9D0E004C02197FE010E940809C53904
:10017000D107C9F70E9496070C940E090C94000051
:10018000FC0180915901882311F13FB7F89482E076
:100190008093E9002091F200822F90E01816190652
:1001A00014F481E090E0882339F0289A44E64093E3
:1001B00058014091F1004083222339F02091F20050
:1001C000211103C02BE62093E8003FBF08958FEF75
:1001D0009FEF0895CF93DF931F92CDB7DEB769836A
:1001E000DC01ED91FC910280F381E02D41E050E0D3
:1001F000BE016F5F7F4F09950F90DF91CF910895FA
:10020000CF93DF931F92CDB7DEB7FC018485958530
:1002100097FD08C02FEF3FEF358724870F90DF91C0
:10022000CF910895CE0101960E94C000019719F464
:10023000898190E0F3CF8FEF9FEFF0CF0F931F9363
:10024000CF93DF931F92CDB7DEB78C01FC0184857D
:10025000958597FF0BC0CE0101960E94C0000197C3
:1002600071F4898190E0F80195878487F80184858D
:1002700095850F90DF91CF911F910F9108958FEF8A
:100280009FEFF1CFFC018485958597FD0BC09FB74B
:10029000F89482E08093E9008091F2009FBF90E0A3
:1002A000019608959FB7F89482E08093E9008091C9
:1002B000F2009FBF90E008953FB7F89480915401F9
:1002C00090915501A0915601B091570126B5A89B78
:1002D00005C02F3F19F00196A11DB11D3FBFBA2FD8
:1002E000A92F982F8827BC01CD01620F711D811D98
:1002F000911D42E0660F771F881F991F4A95D1F71D
:100300000895CF92DF92EF92FF920E945C016B0101
:100310007C010E945C016C197D098E099F09683E71
:10032000734081059105A8F3FF90EF90DF90CF9087
:1003300008958093E9008091F200882319F08AE300
:100340008093E800089583E00C9499014091440162
:1003500050914501209142013091430142175307CA
:10036000B4F49091E8009570E1F39091E80092FD6B
:1003700019C08093F100809144019091450101964C
:100380008F739927892B19F48EEF8093E800809161
:100390004401909145010196909345018093440159
:1003A00081E0089580E00895EF92FF920F931F93EC
:1003B000CF93DF93F82E192FE62E042F81E0860FBE
:1003C000880F0E94A60183E00E94A601CF2DD12FA5
:1003D000EC0EFD2EF11CCE15DF05B9F007FF13C0A2
:1003E000FE0184910E94A601182F80E00E94A601C0
:1003F000812321968111EFCFDF91CF911F910F9132
:10040000FF90EF9008958881EDCF81E0F5CFDF92E6
:10041000EF92FF920F931F93CF93DF93D82E8A0111
:10042000EB017B01E40EF51ECE15DF0559F0D7FE7A
:1004300012C0FE0184910E94A60121968111F4CF81
:100440000FEF1FEFC801DF91CF911F910F91FF9028
:10045000EF90DF9008958881EECF2FB7F8948770E2
:100460008093E9009091E800892F807295FF04C085
:100470009091F20080E4891B2FBF089583E00E94D1
:100480002D0290E008957F928F929F92AF92BF923B
:10049000CF92DF92EF92FF920F931F93CF93DF9350
:1004A000C82E8B017A0180915901811110C08FEF04
:1004B0009FEFDF91CF911F910F91FF90EF90DF9011
:1004C000CF90BF90AF909F908F907F900895809134
:1004D000480180FF05C08091E00082608093E000C9
:1004E000CE2DDF2DD12C8AEFB82E8C2D8770982E33
:1004F0008C2D8072882E8C2D8074782E9AE3A92EF4
:10050000209719F4DD2009F44EC08C2D0E942D0295
:10051000811106C0BA94BB2051F20E948101F0CF34
:100520008C171D0611F00CF08C2F9FB7F894909249
:10053000E9002091E80025FD02C09FBFE1CF282FF0
:1005400030E0C21BD30B882029F08150A0F010921C
:10055000F100FBCFF801C7FC0AC0815050F0419177
:100560004093F100FACF44914093F10031968150CD
:10057000D0F7020F131FDD2021F0A092E800D12C4C
:10058000DCCF8091E80085FD07C0A092E800DD2463
:10059000D394209791F2F3CF209779F6772069F2E0
:1005A000A092E800CACF5D9A84E680934701C70114
:1005B00080CFCF93DF93EC0180910B01882331F042
:1005C00083E00E9443021816190634F081E090E09F
:1005D0009B838A8380E090E0DF91CF910895615002
:1005E00030F02091F100FC0120830196F8CF289A89
:1005F00084E680935801089580913A0181110DC0DD
:1006000082E08093360184E08093370110923901B3
:100610001092380181E080933A0186E391E00895D9
:100620000F931F93CF93DF931F92CDB7DEB782E076
:10063000898342E450E06CEA70E080E80E9407029F
:100640000E94FC02DC0112960D911C91011511050E
:1006500089F0D801ED91FC910280F381E02DBE017B
:100660006F5F7F4FC801099597FD04C0F8010085B1
:100670001185ECCF89810F90DF91CF911F910F9160
:10068000089590E080E0089580E008950F931F930F
:10069000CF93DF93CDB7DEB7C456D1090FB6F89428
:1006A000DEBF0FBECDBFFC01DB019C919E5F9C9322
:1006B0009E01295F3F4F8AE5D9011D928A95E9F78E
:1006C00088E089838BE08A8322E02C8391E09D83FC
:1006D0009E8339E0398764E06A879E879F873A8BDB
:1006E00044E24B8B9C8BA0E0B1E0BE8BAD8B09E06C
:1006F00010E0188F0F8B998F3B8F6C8F2F8F98A3E3
:1007000053E059A387E08CA34DA39EA3B8A7AFA342
:10071000A1E4B0E0BAA7A9A786E08BA74CA72DA7B4
:100720009EA79FA789AB4AAB2BAB2CAB2DAB3FABA6
:1007300048AF59AF9AAF5BAF9CAF2DAF9EAF21963C
:100740003FAF219722964FAF229723965FAF239713
:1007500024962FAF249725966FAF259726969FAFA7
:10076000269727969FAF279728969FAF28972A9678
:100770003FAF2A9745E02B964FAF2B972D962FAF83
:100780002D9760E470E02F967FAF6EAF2F97639642
:100790004FAF639785E264968FAF649765969FAF7E
:1007A000659766969FAF669767969FAF67976896BF
:1007B0003FAF689769964FAF69976B962FAF6B976E
:1007C0006D967FAF6EAF6D97A1964FAFA197A29632
:1007D0008FAFA297A3969FAFA397A4969FAFA4971E
:1007E000A5965FAFA59792819B839B879F5F9A8F0A
:1007F0009D8F83812C968FAF2C978F5F80686A9630
:100800008FAF6A9744E650E0BE016F5F7F4F80E094
:100810000E940702CC59DF4F0FB6F894DEBF0FBE1F
:10082000CDBFDF91CF911F910F91089584E0E1E357
:10083000F1E0DB0101900D928A95E1F784E00895E3
:100840001F920F920FB60F9211242F933F938F9305
:100850009F93AF93BF938091500190915101A091CC
:100860005201B091530130914F0123E0230F2D37F6
:1008700058F50196A11DB11D20934F0180935001A1
:1008800090935101A0935201B09353018091540170
:1008900090915501A0915601B09157010196A11D6B
:1008A000B11D8093540190935501A0935601B093CC
:1008B0005701BF91AF919F918F913F912F910F90D1
:1008C0000FBE0F901F90189526E8230F0296A11DCA
:1008D000B11DD2CF1F920F920FB60F9211242F93FA
:1008E0003F934F935F936F937F938F939F93AF93B8
:1008F000BF93CF93EF93FF93C091E1008091E1000C
:10090000837F8093E100C3FF0FC01092E90081E074
:100910008093EB001092EC0082E38093ED00109244
:10092000590188E08093F000C2FF1BC083E00E9461
:10093000990180914701882341F0809147018150BE
:1009400080934701811101C05D98809158018823EF
:1009500041F080915801815080935801811101C06C
:100960002898C4FF23C08091E2008E7E816080932E
:10097000E2008091E1008F7E8093E1008091480148
:100980008E7E806180934801FF91EF91CF91BF915E
:10099000AF919F918F917F916F915F914F913F9117
:1009A0002F910F900FBE0F901F901895C0FFECCFA6
:1009B0008091E2008E7E80618093E2008091E10070
:1009C0008E7E8093E100809148018E7E8160DACF37
:1009D0001F920F920FB60F921124CF92DF92EF92D7
:1009E000FF920F931F932F933F934F935F936F93B8
:1009F0007F938F939F93AF93BF93EF93FF93CF9387
:100A0000DF93CDB7DEB76C97DEBFCDBF1092E900A4
:100A10008091E80083FF25C068E0CE0145960E94E2
:100A2000EF0282EF8093E8008D8987FF39C09091B3
:100A3000E80090FFFCCF982F907609F034C19E8992
:100A40004F89588D2F89F88C911131C0803861F50C
:100A5000809149018093F1001092F1008EEF809314
:100A6000E8006C960FB6F894DEBF0FBECDBFDF91E5
:100A7000CF91FF91EF91BF91AF919F918F917F9116
:100A80006F915F914F913F912F911F910F91FF9027
:100A9000EF90DF90CF900F900FBE0F901F901895A2
:100AA0009EEF9093E800C7CF1092F100D5CF913020
:100AB00059F48111D3CF4130510581F6809149011C
:100AC0008D7F80934901CACF933049F48111C6CFFD
:100AD0004130510519F6809149018260F2CF95307D
:100AE00041F48091E80080FFFCCF20682093E30070
:100AF000B5CF963009F0A9C00B8D1C8D22E0109265
:100B0000E9001092450110924401F2122EC0109299
:100B10004301109242010E9410031F8299E09983C1
:100B2000FA8291E09E8390EA98879AEF99872091C4
:100B3000440130914501275F3F4F3C832B838D83D8
:100B40001092E90010924501109244011093430164
:100B50000093420149E050E0BE016F5F7F4F80E0AB
:100B60000E9407020E94100379CF10934301009363
:100B700042010E94FC02DC0112960D911C910115AC
:100B8000110509F451C1D801ED91FC910480F58162
:100B9000E02DBE016B5E7F4FC8010995009709F0FB
:100BA0003EC1F80100851185EACFF3E0FF120EC0C7
:100BB0008F89882309F440C0823061F440E86DE0F9
:100BC00080E191E00E94D401811148CF81E28093BD
:100BD000EB0047CF813029F440E86BE084E091E0FE
:100BE000F1CF833099F70E94FC02DC011296ED9060
:100BF000FC908E010F5F1F4F6801E114F10479F042
:100C0000D701ED91FC910680F781E02DB801C70175
:100C10000995080F111DF701E084F184EECFD8018A
:100C20001C92F60101900020E9F73197BF016C1981
:100C30007D0940E0C601C6CF6EEE70E0FB01449135
:100C400050E080E80E94070209CF973009F4BECF38
:100C5000983021F481E08093F10000CF993009F0C1
:100C6000FDCE837009F0B2CFEDE0F1E081E031E03C
:100C700096E32191222371F08093E9003093EB00F9
:100C8000DF0111972C912093EC009093ED008F5F82
:100C9000873079F78EE78093EA001092EA008F8917
:100CA00080935901DBCE8B8D9C8D1092E9001092C0
:100CB0004501109244019093430180934201898D34
:100CC000811192C08E899D89913A49F4813209F04F
:100CD0007DCF47E050E064E071E080E0B3CF913237
:100CE00009F074CF833269F48F89988DB0E0A0E069
:100CF0008093000190930101A0930201B09303013E
:100D0000ADCE803269F48091E80082FFFCCF67E0CD
:100D100084E091E00E94EF028BEF8093E8009ECE8A
:100D2000823209F09BCE8F8980930B01EEEFFFE7B3
:100D3000859194918B3F9C4D51F1E0E0F8E08091DA
:100D4000040190910501A0910601B0910701803B3B
:100D50009440A105B105F1F480910B0180FD1AC00A
:100D6000EE3F8AE0F80789F587E797E7918380836C
:100D7000809160008093460188E19BE00FB6F89473
:100D8000A895809360000FBE9093600067CEEEEF51
:100D9000FAE0D5CF808191818737974709F05ECE01
:100DA000A8958091600088618093600080914601E1
:100DB00080936000EE3F2AE0F20789F08091FE0AFE
:100DC0009091FF0A9183808349CE808191818737FA
:100DD000980751F29093FF0A8093FE0AC5CF1092B4
:100DE000FF0A1092FE0A3ACE0E94FC02DC01129623
:100DF0000D911C910115110509F4E8CED801ED9172
:100E0000FC910190F081E02DBE016B5E7F4FC80127
:100E10000995811123CEF80100851185EBCF1816B5
:100E200019060CF41BCED2CEF1E0FF12BECE62EF5B
:100E300070E004CFCF93DF9310925D0110925C01BC
:100E400088EE93E0A0E0B0E080935E0190935F01B4
:100E5000A0936001B093610187E191E090935B0101
:100E600080935A018FEF9FEF909367018093660103
:100E700082E08093AE018093AF0184EB91E0909388
:100E8000B1018093B0011092B3011092B20189E2D6
:100E900091E09093AB018093AA0180E88093B40124
:100EA00081E88093B5010E94FC02FC018181909150
:100EB000AE01482F490F5527551F483051059CF565
:100EC000A281B381109709F52AEA31E033832283A6
:100ED00020812093AC018093AD018091AF01820FFE
:100EE00080832091B001A22FB091B1018A2F821B83
:100EF0008917C8F481813D91C82FD0E0C45FDE4FCF
:100F000038838F5F8183F2CFD90118962D913C9160
:100F1000199721153105C1F72AEA31E019963C935A
:100F20002E931897D5CFDF91CF910895CF93DF936C
:100F300000D000D0CDB7DEB7789484B5826084BD90
:100F400084B5816084BD85B5826085BD85B58160CD
:100F500085BD80916E00816080936E00109281004B
:100F60008091810082608093810080918100816006
:100F700080938100809180008160809380008091C7
:100F800091008260809391008091910081608093B4
:100F90009100809190008160809390008091C100C9
:100FA00084608093C1008091C10082608093C10001
:100FB0008091C10081608093C1008091C3008160F5
:100FC0008093C3008091C00082608093C0008091B4
:100FD000C20081608093C20080917A008460809317
:100FE0007A0080917A00826080937A0080917A0002
:100FF000816080937A0080917A00806880937A0083
:101000001092590110924901109248018091D70025
:1010100081608093D70080EA8093D80089B5806191
:1010200089BD89B5826089BD09B400FEFDCF0E94EB
:1010300081018091D8008F7C80618093D80080915D
:10104000E000807F8093E0008091E1008E7E8093BD
:10105000E1008DE08093E200559A209A5D982898EF
:1010600082E190E090934B0180934A0110924C01F1
:1010700087E080934D0110924E0144244A9493E0FE
:10108000592E612C712C20E0A22E20E0B22E3BE0E4
:10109000C32ED0904E010D2D10E083E0E82EF12CF0
:1010A000E0914A01E23108F0E251F0E0E25EFE4FE9
:1010B000E49190917B008E2F880F880F80729F7D26
:1010C000892B80937B00E770E064E0937C00809143
:1010D0007A00806480937A0080917A0086FDFCCF4C
:1010E000A0917800B09179002FE730E00E940109CB
:1010F000A30192010E94B10830E0C901801B910B4D
:1011000097FF03C091958195910902970CF0890191
:1011100081E0E81AF10809F0C3CFD0161106D1F02A
:1011200000934E0180914C01806B90914D01C982DA
:101130008A839B830C838091AD0144E050E0BE0123
:101140006F5F7F4F8F5F0E9443028091AD018F5F81
:101150000E949901A114B10409F49BCF0E940000E0
:1011600098CF052E97FB1EF400940E94C80857FDE7
:1011700007D00E94D00807FC03D04EF40C94C80896
:1011800050954095309521953F4F4F4F5F4F0895B3
:1011900090958095709561957F4F8F4F9F4F0895E3
:1011A000A1E21A2EAA1BBB1BFD010DC0AA1FBB1F6B
:1011B000EE1FFF1FA217B307E407F50720F0A21BDD
:1011C000B30BE40BF50B661F771F881F991F1A944A
:1011D00069F760957095809590959B01AC01BD0174
:1011E000CF010895A29FB001B39FC001A39F700DCE
:1011F000811D1124911DB29F700D811D1124911D1F
:1012000008950E94F208B7FF0895821B930B08957A
:10121000EE0FFF1F0590F491E02D0994F894FFCF95
:10122000FFFFFFFF00E100000000000000C180811F
:1012300000000000000000EA00D9023E02A30142C3
:101240000100011E01000000004403460341031693
:06125000044D4944490071
:00000001FF
